:020000040800F2
:100000008006002049010008972900086926000899
:1000100095290008490700080D2E0008000000007F
:100020000000000000000000000000009B29000804
:100030008F07000800000000992900089D2900088A
:100040006301000863010008630100086301000800
:1000500063010008630100086301000863010008F0
:1000600063010008630100086301000863010008E0
:1000700063010008630100086301000863010008D0
:1000800063010008630100086301000863010008C0
:10009000630100084D0700086301000863010008C0
:1000A00063010008012A00086301000863010008D9
:1000B0000D2A0008192A0008252A000863010008F3
:1000C0006301000863010008630100086301000880
:1000D00063010008012E00086301000863010008A5
:1000E0006301000863010008630100086301000860
:1000F0006301000863010008630100086301000850
:100100006301000863010008312A00086301000848
:10011000630100086301000863010008630100082F
:10012000630100086301000863010008630100081F
:10013000DFF810D000F0F6FA00480047793E0008DA
:10014000AFF300808006002006488047064800473D
:10015000FEE7FEE7FEE7FEE7FEE7FEE7FEE7FEE777
:10016000FEE7FEE7FD29000831010008202A04DB34
:10017000203A21FA02F00021704721FA02F3D04020
:10018000C2F120029140084319467047D2B201E003
:1001900000F8012B491EFBD270470022F6E710B58C
:1001A00013460A4604461946FFF7F0FF204610BDE5
:1001B0002DE9FE4F804681EA0300C00F0C460090F7
:1001C00021F0004123F00045B8EB0200A94105D21F
:1001D0004046214690461C460B46024623F000400E
:1001E000104347D0270DC7F30A00C3F30A5102900A
:1001F000401A019040286BDAC3F3130040F4801BCF
:100200000098924620B10023D2EB030A63EB0B0B5C
:1002100001985946C0F14002504600F0D5F9064613
:100220000D4650465946019A00F0DDF910EB0800E2
:100230006141002487EA115284EAE7731A4340D0EF
:10024000009A62B3019A012A4FEA075215DC001B9B
:1002500061EB02014FF0004202EA0752CDE9004291
:10026000001C41F5801132462B4600F0DDF903B049
:10027000BDE8F08F40462146F9E7001B61EB020123
:10028000001C41F5801300185B412018A2F50017EF
:1002900047EB030140EAD570B6196D4111E06D08D6
:1002A0004FEA360645EAC0754FEA0752001B61EB7C
:1002B0000201001C41F5801149084FEA3000001985
:1002C000514132462B4603B0BDE8F04F00F09DB9D6
:1002D0000098012240000023D0EB020263EBE073A0
:1002E000009821464FEAE074B8EB000061EB04018E
:1002F000E9E783F000435BE781F0004158E72DE92F
:10030000FE4F81EA030404F0004421F00041009410
:100310004FF0000B23F0004350EA01045ED052EA94
:1003200003045BD0C3F30A54C1F30A552C44A4F26E
:10033000F3340194A0FB0254C1F3130141F4801182
:10034000C3F3130343F4801301FB024400FB034E89
:10035000840A970A44EA815447EA8357A4FB076852
:1003600002958D0A05FB07854FEA932C04FB0C547C
:100370002705029D4FEA065847EA1637B5EB0805F0
:100380006EEB070C870E920E47EA811742EA831242
:10039000A7FB0201B6EB0B0164EB00042B0D43EA53
:1003A0000C335E1844EB1C50DA465146E7FB020161
:1003B000C5F313044FEA0B3343EA14534FEA0432F4
:1003C000019C43EA0603A4F10C040294009CCDE9CD
:1003D00000B400F029F903B0BDE8F08F0020014619
:1003E000F9E72DE9F04D81EA030404F0004B21F018
:1003F000004514464FF0000A23F0004150EA050280
:1004000020D054EA01021DD0C5F30A570246C5F3B5
:100410001303C1F31300C1F30A5640F4801543F4EB
:100420008013A7EB0608101BD64608F2FD3873EBC5
:10043000050002D308F1010801E092185B41B8F110
:10044000000F03DA00200146BDE8F08D00204FF4D4
:100450008011064684460EE0171B73EB050705D393
:10046000121B63EB050306434CEA010C49084FEAF3
:10047000300092185B4150EA0107EDD152EA0300C7
:1004800012D082EA040083EA0501084305D0101B5C
:10049000AB4106D20122002306E000224FF00043C8
:1004A00002E06FF0010253101AEB06004CEB08510A
:1004B00010EB0A0041EB0B01BDE8F04D00F0A5B8D0
:1004C0000EB5C10F80EAE0700844CA07002140F26F
:1004D00033438DE80E000A460B4600F0A5F803B042
:1004E00000BD0EB540F2334102910021CDE900116B
:1004F0000A460B4600F098F803B000BD70B5C1F392
:100500000A5201F000450024C1F3130140F2FF3309
:1005100041F480119A4201DA002070BD40F2334369
:100520009A42A2F2334203DC5242FFF71FFE00E080
:1005300090402C43F1D0404270BD30B50B4601468F
:1005400000202022012409E021FA02F59D4205D372
:1005500003FA02F5491B04FA02F52844151EA2F11C
:100560000102F1DC30BD2DE9F05F05460020924626
:100570009B4688460646814640241BE02846414665
:1005800047462246FFF7F2FD53465A46C01A9141AC
:1005900010D311461846224600F016F82D1A67EBC4
:1005A00001084F4622460120002100F00DF817EB0C
:1005B00000094E41201EA4F10104DFDC484631460B
:1005C0002A464346BDE8F09F202A04DB203A00FA81
:1005D00002F1002070479140C2F1200320FA03F39A
:1005E000194390407047202A06DBCB17203A41FA86
:1005F00002F043EAE07306E041FA02F3D040C2F1B0
:100600002002914008431946704710B5141E73F13B
:10061000000408DA401C41F1000192185B411A43C2
:1006200001D120F0010010BD2DE9F04D92469B460E
:1006300011B1B1FA81F202E0B0FA80F220329046B4
:10064000FFF7C2FF04460F4640EA0A0041EA0B01E9
:1006500053465A46084313D0114653EA010019D0B5
:10066000C8F140025046FFF781FD05460E46504650
:1006700059464246FFF7A8FF084305D0012004E091
:1006800020463946BDE8F08D0020054346EAE07675
:100690002C4337430A986305E40AA0EB08000022C4
:1006A000FD0A44EA47540A3002D500200146E9E732
:1006B000010510196941DDE9084500196941BDE8E6
:1006C000F04DA2E7C1F30A52C1F3130140F2FF3328
:1006D00041F480119A4202DA00200146704740F24C
:1006E00033439A42A2F2334202DC5242FFF73EBD4C
:1006F000FFF76ABF30B5041E71F1000404DB4FF050
:100700000044404264EB0101141E73F1000405DB58
:100710001C464FF00043524263EB0403994208BF6A
:10072000904230BD064C074D06E0E06840F0010302
:1007300094E8070098471034AC42F6D3FFF7FCFC6E
:100740007841000898410008FEE70000014800F0E9
:100750008DB90000A800002010B58AB00122002148
:100760000892CDE905210491029100910191039134
:10077000099104460792694600F08CF8204600F083
:100780008FFB0221204600F005F80AB010BD70472B
:1007900072B6FEE790F82020012A07D0022A05D081
:1007A000416A41F48021416201207047006842693A
:1007B0000A43426100207047F0B590F82050046869
:1007C000A468012D05D0022D03D0416A41F4802197
:1007D0005DE014F0406F01D1E50055D5C4F301642C
:1007E000022C03D9416A41F4000150E00125A540E3
:1007F0001D608D684FF4C0739DB1CE6835434E685F
:1008000045EAC605066803EB0417F5514FF4C275B7
:10081000076805EB04150E697E51097D012905D095
:1008200009E00E88CD6845EA4655EBE701684E5968
:1008300046F480764E511179D579567941EA0561B1
:1008400095792D0445EA062529434FF4C6760568B7
:1008500006EB0416A9511178D57841EA056195781F
:1008600052782D0445EA022211434FF4C475026800
:1008700005EB04155151006803EB0411425842F096
:10088000010242500020F0BD416A41F40011416272
:100890000120F0BD10B590F820300268012B07D080
:1008A000022B05D0416A41F480214162012010BD34
:1008B000D2F8000240F00100C2F80002087D00F00A
:1008C0001F0301209840D2F81C328343C2F81C3227
:1008D000CB69B3B9D2F80C328343C2F80C328C899D
:1008E0004B6864F31F434C6902EBC404C4F8403204
:1008F0000C890B6864F31F434C6902EBC404C4F811
:100900004432CB69012B16D1D2F80C320343C2F822
:100910000C320C884B6864F31F434C6902EBC4042F
:10092000C4F840320C89CB6864F31F434C6902EB76
:10093000C404C4F844328B69002BD2F804320FD0BF
:1009400053EA0003C2F804320B69002BD2F81432C8
:1009500008D00343C2F81432096A012904D008E020
:100960008343EFE78343F5E7D2F81C120143C2F853
:100970001C12D2F8000220F00100C2F80002002090
:1009800010BD704730B590F82040012C05D0022CE6
:1009900003D0416A41F480215DE00468002955D00C
:1009A0002469A40754D04FF4D874056804EB0114EB
:1009B0002D5915F00405956005682D594ED0ED08A8
:1009C000556005682C5904F00204D4604FF4DA74C1
:1009D000056804EB01142D5905F00F051561056834
:1009E0002D59C5F30725956105682C59240C5461D0
:1009F0004FF4DC72046802EB0112A4581C70046806
:100A0000A458240A5C700468A458240C9C700468E0
:100A1000A258120EDA704FF4DE72046802EB011273
:100A2000A4581C710468A458240A5C710468A45872
:100A3000240C9C710468A258120EDA71006881B10E
:100A4000016941F020010161002030BDE468A8E7A0
:100A5000416A41F400114162012030BD6D0D156005
:100A6000AFE7C16841F02001C160EDE72DE9F05F1B
:100A70000546006800244669D0F804908768D0F8DD
:100A80000CB0D0F810A0D0F81880F10748D0F907C2
:100A900014D001218160B80703D5284600F02DFA53
:100AA0000CE0780702D54FF4006407E0380702D560
:100AB0004FF4805402E0284600F01EFAF80516D5DF
:100AC00029684FF480708860B80503D5284600F087
:100AD00016FA0CE0780502D544F4005407E0380516
:100AE00002D544F4804402E0284600F007FAF803F7
:100AF00016D529684FF480308860B80303D528469E
:100B000000F0FFF90CE0780302D544F4004407E05C
:100B1000380302D544F4803402E0284600F0F0F9AE
:100B2000300707D55FEACB6004D52968102044F46C
:100B30000074C86070074FF0080707D55FEA0B70B4
:100B400004D52868C760284600F05AF9B00706D5D2
:100B50002868C068800702D0284600F053F9700664
:100B600007D55FEACA6004D52968102044F4806480
:100B70000861B00607D55FEA0A7004D528680761E6
:100B8000284600F089F9F00606D528680069800734
:100B900002D0284600F081F9B00308D55FEAC960A9
:100BA00005D5296810204860284600F077F9F00341
:100BB00007D55FEA097004D528684760284600F029
:100BC000A1F9300446D55FEA497040D5F00504D557
:100BD0005FEAC87001D044F00104B00504D55FEAB3
:100BE000887001D544F00204700504D55FEA4870AE
:100BF00001D544F00404300529D518F0700F26D033
:100C000008F07000402815D006DC102809D02028F4
:100C10000AD0302816D10AE050280ED0602811D111
:100C20000EE044F008040DE044F010040AE044F043
:100C3000200407E044F0400404E044F0800401E0B4
:100C400044F480742868816921F070018161296809
:100C500004204860002C05D0686A2043686228465A
:100C6000FFF78FFEBDE8F09F70B5040003D094F845
:100C7000200010B104E0012070BD204600F082F891
:100C80002068016841F00101016000F00FFB05469A
:100C9000052604E000F00AFB401B0A2811D8206852
:100CA0004068C007F6D02068016821F002010160A9
:100CB00000F0FCFA05460BE000F0F8FA401B0A28A9
:100CC00006D9606A40F40030606284F82060D2E7A0
:100CD000206840688007EFD4207E012820680168E2
:100CE0003DD021F080010160607E0128206801680C
:100CF00038D021F040010160A07E01282068016801
:100D000033D021F020010160E07E012820680168D5
:100D10002ED041F010010160207F01282068016879
:100D200029D021F008010160607F01282068016856
:100D300024D021F004010160D4E902010843D4E980
:100D40000412114308436168491E08432168C861C1
:100D500000206062012084F82000002070BD41F076
:100D60008001C0E741F04001C5E741F02001CAE73A
:100D700021F01001CFE741F00801D4E741F0040170
:100D8000D9E7000010B586B00021009101910291D1
:100D900003910068174988422AD11748C16941F078
:100DA0000071C161C16901F000710491816941F074
:100DB000040181618069114C00F0040004904FF43B
:100DC000006000906946204600F06AF9A014009087
:100DD00002200190032003906946204600F060F94C
:100DE00000221146152000F0F3FA152000F0E2FA77
:100DF00006B010BD00640040001002400008014031
:100E00007047000070B500680F4988421BD10F4839
:100E1000006818B10EA001F0FBFF0CE014A001F077
:100E2000F7FF194D002419A0295D01F0F1FF641CA2
:100E3000E4B2082CF7D317A001F0EAFFBDE8704038
:100E400014A001F0E5BF70BD006400400C0000205C
:100E50004D43552052656365697665642043414E74
:100E60002044617461204552524F522121210000DB
:100E70004D43552052656365697665642043414E54
:100E800020446174613A2000580000203058253019
:100E9000325820000A0D000070477047704700006C
:100EA00070B5044690F82000012804D0606A40F430
:100EB0000020606218E0022084F8200020680168A9
:100EC00021F00101016000F0F1F905460EE000BFDC
:100ED00000F0ECF9401B0A2808D9606A40F40030A1
:100EE0006062052084F82000012070BD2068406801
:100EF000C007EDD1606270BD7047704770477047A2
:100F000070477047704710B590F8211000220229F1
:100F100005D00421816380F82020012010BD0168E4
:100F20000B6823F00E030B6001680B6823F00103CC
:100F30000B6090F84030C46B012101FA03F3636049
:100F400080F8211080F82020104610BD2DE9F05FB8
:100F500090F821100024022903D004218163012488
:100F600085E001680A6822F00E020A6001680A68DA
:100F700022F001020A603F4E3E4FB215DFF8F4C086
:100F8000DFF8F090DFF8ECA0DFF8E8B0DFF8E4E09D
:100F90000168783F13011502ACF1640CA9F1500906
:100FA000AAF13C0AABF1280BAEF1140E4FF48018F5
:100FB000B14227D9B9420ED0614512D049451DD062
:100FC000514518D0594518D0714501D1424615E018
:100FD000294EB14201D1012210E0274E1436B14210
:100FE00001D110220AE0244E2836B14206D0224A0E
:100FF0003C32914201D11A4600E02A461E49091F9F
:101000000A602BE0B94213D0614517D0494522D080
:1010100051451DD059451DD0714501D142461AE0B8
:10102000B14202D14FF0807215E0134EB14201D1AE
:10103000012210E0104E1436B14201D110220AE014
:101040000D4E2836B14206D00B4A3C32914201D1B6
:101050001A4600E02A46074980394A60012180F893
:101060002110002180F82010416B01B188472046F3
:10107000BDE8F09F800002400804024070B50446BD
:1010800000F014F90546601C02D0044800780444BE
:1010900000F00CF9401BA042FAD370BD60000020A4
:1010A0002DE9F84FDFF8C891002409F1040A0AF18C
:1010B000040B23460F270BF1040ED1E00125A540B8
:1010C00006EA0502AA4276D1DFF8A8C14E68A6EB6F
:1010D0000C0866452BD00DDC032E34D005DC36B36E
:1010E000012E19D0022E2FD11BE0112E16D0122E58
:1010F0002AD119E0B8F5881F19D006DCB8F5803F71
:1011000015D0B8F5801F1FD111E0B8F5001F0ED023
:10111000B8F5041F18D10AE0CB6815E0CB681B1D99
:1011200012E0CB6808330FE0CB680C330CE08B681F
:101130002BB1012B4FF0080303D0456104E00423D9
:1011400002E0056100E00023FF2A01D8064601E025
:1011500000F104064FEA840501D9A5F12005D6F86F
:10116000008007FA05FC28EA0C0803FA05F548EAAE
:101170000508C6F800804D68ED0070D53E4DAE699B
:1011800046F00106AE61AD6924F0030605F00105E5
:1011900000953A4D06EB050CDCF80850A607360F13
:1011A00007FA06F825EA0805DFF8D480404503D1A0
:1011B0004FF0000825E052E0DFF8C880404502D13A
:1011C0004FF001081DE0DFF8C080404502D14FF02C
:1011D000020816E0DFF8B480404502D14FF0030862
:1011E0000FE0DFF8AC80404502D14FF0040808E082
:1011F000DFF8A080404502D14FF0050801E04FF034
:10120000060808FA06F848EA0508CCF808804D6890
:10121000D9F80060ED034D4601D5164300E0964332
:101220002E604D68DAF80060AD03554601D51643CF
:1012300000E096432E604D68DBF80060ED025D46ED
:1012400001D5164300E096432E604D68DEF800603D
:10125000AD02754601D5164300E096432E60641C2E
:101260000A681646E2407FF429AFBDE8F88F000017
:101270000004014000001110001002400000014075
:1012800000080140000C0140001001400014014022
:1012900000180140001C01408068084000D0012077
:1012A00070470AB1016170470904FBE70148806893
:1012B00070470000600000200248816802781144F5
:1012C0008160704760000020074810B5016841F058
:1012D00010010160032000F09BF80F2000F006F8D9
:1012E00000F04AF8002010BD0020024030B505464D
:1012F0001C4887B0816941F400618161806906A959
:1013000000F40060009001A800F02AF900F058F9FC
:101310001549164AB0FBF1F11548491E02604160BB
:1013200040F2E7320021C0E903218160816100F0D1
:101330005DFB040012D10E4800F01CFC04000DD12E
:10134000192000F037F8102D07D200222946192065
:1013500000F03EF80748056000E0012407B0204691
:1013600030BD00000010024040420F00002C014040
:1013700034020020640000200C4808B5816941F067
:1013800001018161816901F001010091C16941F0B0
:101390008051C161C06900F08050009004484168EC
:1013A00021F0E06141F00071416008BD0010024091
:1013B00000000140002809DB00F01F0201219140DC
:1013C0004009800000F1E020C0F8001170470000E3
:1013D000F0B40E4B1B680C46C3F30223C3F10705A0
:1013E000042D00D90425191D072901D2002300E08E
:1013F000DB1E012606FA05F1491E214099409E4058
:10140000761E16403143F0BC01F012BD0CED00E039
:10141000064900F0070208684FF6FF03184040EA4B
:101420000220034A10430860704700000CED00E002
:101430000000FA052DE9F0470F46050061D0434E44
:10144000306800F00700B84209D2306820F0070089
:1014500038433060306800F00700B84251D1286846
:101460003B4C810712D5400703D5606840F4E0602B
:1014700060602878000703D5606840F460506060C1
:101480006068A96820F0F000084360602878C00711
:1014900028D06868012810D02168022810D0890758
:1014A00000292EDA616821F0030101436160FFF732
:1014B000FDFE804641F288390DE021688903EFE79F
:1014C0008901EDE7FFF7F2FEA0EB0801494502D9DB
:1014D0000320BDE8F0876068696800F00C00B0EB9D
:1014E000810FEFD1306800F00700B8420BD93068A7
:1014F00020F0070038433060306800F00700B84241
:1015000001D00120E5E72878400705D56068E96843
:1015100020F4E060084360602878000706D5606822
:10152000296920F4605040EAC100606000F058F87A
:101530006168084AC1F30311515CC840064908605C
:1015400006480068FFF7D2FE0020C2E700200240F4
:1015500000100240604100086C0000206400002080
:101560000F2202600C4A536803F003034360536880
:1015700003F0F0038360536803F4E063C3605268D0
:101580004FF4E06303EAD20202610448006800F00D
:101590000700086070470000001002400020024071
:1015A0000448054900684968044AC1F30221515CB6
:1015B000C84070476C0000200010024070410008D5
:1015C0000448054900684968044AC1F3C221515CD6
:1015D000C84070476C0000200010024070410008B5
:1015E00012A185B00FC98DE80F0014A0144A00683D
:1015F00004905168134801F00C03042B10D0082B01
:101600000ED1C1F38343C9031DF803000AD5516805
:1016100004AAC1F34041515C0A4A5043B0FBF1F0C7
:1016200005B0704708494843FAE700000203040583
:10163000060708090A0B0C0D0E0F1010010200001E
:101640000010024000127A0000093D002DE9F84F19
:10165000040070D02078C04DC00749D06868C0F33E
:101660008100012807D06868C0F38100022809D1F1
:101670006868C00306D52868800339D560680028EB
:10168000E7D035E06068B0F5803F0BD010B1B0F521
:10169000A02F11D0286820F480302860286820F41A
:1016A000802002E0286840F480302860606890B1B3
:1016B000FFF7FCFD06460AE0286840F48020286019
:1016C000F0E700BFFFF7F2FD801B642873D828689D
:1016D0008003F7D50CE0FFF7E9FD064605E000BF03
:1016E000FFF7E4FD801B6428F0D828688003F7D456
:1016F00020789A4E80074FF001094FF0000839D545
:10170000686810F00C0F07D06868C0F381000228E9
:1017100009D16868C00306D42868800714D52069F9
:10172000012808D110E02069B0B1C6F80090FFF799
:10173000BDFD074605E00AE1FFF7B8FDC01B022822
:10174000C4D828688007F7D52868616920F0F800B8
:1017500040EAC10028600DE0C6F80080FFF7A6FD52
:10176000074604E0FFF7A2FDC01B022823D8286823
:101770008007F7D4207800072CD57948A169D9B122
:10178000C0F80090FFF792FD074604E0FFF78EFDDA
:10179000C01B02280FD8686A8007F7D571484FF43C
:1017A000FA510068B0FBF1F0009000BF0098411EB4
:1017B0000091FAD20EE080E0C0F80080FFF776FDDD
:1017C000074604E0FFF772FDC01B022875D8686A5F
:1017D0008007F7D42078400760D5E8690027C0006B
:1017E00008D4E86940F08050E861E869012700F01A
:1017F000805000905C480168C90513D40168834695
:1018000041F480710160FFF751FD824606E000BFA0
:10181000FFF74CFDA0EB0A0064284ED8DBF800006F
:10182000C005F5D5E06801280AD008B1052813D015
:10183000286A20F001002862286A20F0040002E0F3
:10184000286A40F001002862E06841F2883B98B1C4
:10185000FFF72CFD82460BE0286A40F00400286266
:10186000EEE700BFFFF722FDA0EB0A0159455AD869
:10187000286A8007F6D50CE0FFF718FD824605E0E0
:10188000FFF714FDA0EB0A0159454CD8286A8007E0
:10189000F6D41FB1E86920F08050E861E06988B3B0
:1018A0006968C1F38101022944D00228C6F860802A
:1018B00004D0FFF7FBFC044638E034E0FFF7F6FC09
:1018C000074604E0FFF7F2FCC01B02282BD828686B
:1018D0008001F7D4206AB0F5803F05D16868A1681F
:1018E00020F4003008436860D4E9080108436968BF
:1018F00021F4741108436860C6F86090FFF7D6FCC5
:10190000044606E025E000BFFFF7D0FC001B0228DC
:1019100009D828688001F7D51BE000BFFFF7C6FC97
:10192000001B022802D90320BDE8F88F2868800137
:10193000F4D40EE00128F7D06868226A00F4803100
:10194000914204D1616A00F47010884201D00120F4
:10195000EAE70020E8E700000010024000004242F1
:10196000800442426C0000200070004070477047C5
:1019700070B590F83C20012A2CD0012480F83C401E
:10198000022280F83D2003685A689D6822F07006A4
:101990000A6832435A60104B02689A420ED00F4BCD
:1019A0009A420BD0B2F1804F08D00D4B9A4205D02D
:1019B0000C4B9A4202D00C4B9A4204D1496825F054
:1019C00080031943916080F83D40002180F83C106D
:1019D000084670BD022070BD002C0140003401405B
:1019E0000004004000080040000C004010B5040056
:1019F00003D094F83D0010B107E0012010BD002095
:101A000084F83C00204600F01FF8022084F83D00D6
:101A1000211D206801F012F8012084F8460084F8A6
:101A20003E0084F83F0084F8400084F8410084F8C8
:101A3000420084F8430084F8440084F8450084F8A8
:101A40003D00002010BD000000B585B000210091D0
:101A500001910291039102683F49B2F1804F23D076
:101A60003E4B3F489A422ED1CA6942F00202CA61F7
:101A7000CA6902F0020204928A6942F004028A6191
:101A8000896901F004010491402100916946FFF742
:101A900007FB002211461D20FFF79AFC5FF01D0096
:101AA000FFF788FC05B000BDC86940F00100C861BF
:101AB000C869002200F00100049002211C20FFF7F9
:101AC00087FC1C20ECE7274B9A4225D1C86940F0DF
:101AD0000400C861C86900F004000490886940F0FF
:101AE000200088618869694600F020000490901405
:101AF0000090022002901C48FFF7D2FA1B48416870
:101B000041F0E06141F480514160002211461E2005
:101B1000FFF75EFC1E20C3E7154B9A42C2D1CA698B
:101B200042F00802CA61CA6902F0080204928A6996
:101B300042F004028A61896901F0040104910121E3
:101B400000916946FFF7ACFA002211463220FFF7F8
:101B50003FFC3220A4E700000010024000040040D7
:101B6000000801400008004000140140000001404E
:101B7000000C004090F83D10012901D00120704771
:101B8000022180F83D100168CA6842F00102CA6073
:101B900000680E4988420ED00D4988420BD0B0F142
:101BA000804F08D00B49884205D00B49884202D0AB
:101BB0000A49884204D1816801F00701062903D04F
:101BC000016841F00101016000207047002C0140D4
:101BD000003401400004004000080040000C0040B8
:101BE00070B5044690F83C00012817D0012584F810
:101BF0003C50022084F83D002068826822F0770281
:101C000022F47F4282600868502830D00DDC202802
:101C10004DD005DC98B310283BD148E0022070BDC0
:101C2000302844D0402834D139E0602828D07028AA
:101C300006D0B0F5805F2CD0B0F5005F29D10AE066
:101C4000CB68D1E90121206800F04BFF2068816852
:101C500041F0770109E0CB68D1E90121206800F06B
:101C600040FF2068816841F48041816011E0CA68CA
:101C70004968206800F047FF5021206807E016E01F
:101C8000CA684968206800F085FF6021206800F07C
:101C900032FF84F83D50002084F83C0070BDCA68D3
:101CA0004968206800F02FFF40212068EFE7226894
:101CB00001461046EBE700002DE9F04705460068B5
:101CC0004B4900264B4F88422ED1DFF82C914FF420
:101CD000805841464846FFF7DFFA484C58B1206823
:101CE00046622068016A21F00A0101622068016AE7
:101CF00041F0020117E041464846FFF7CDFA98B996
:101D00000021284600F0C4FAFEF7EBFBC7E90A0100
:101D100000213A4800F0AEF92068016A21F00A017A
:101D200001622068016A016235492868DFF8D480C1
:101D300088422AD101214046FFF7AEFA324C58B111
:101D4000206846622068016A21F00A010162206869
:101D5000016A41F0020117E001214046FFF79CFAB9
:101D600098B90021284600F093FAFEF7BAFBC7E9BC
:101D70000C010021244800F07DF92068016A21F05F
:101D80000A0101622068016A0162204928688842CC
:101D90002BD140214046FFF77FFA1D4C58B12068F7
:101DA00046622068016A21F00A0101622068016A26
:101DB00041F0020118E040214046FFF76DFA00288B
:101DC00013D10021284600F063FAFEF78AFBC7E929
:101DD0000E0100210E4800F04DF92068016A21F043
:101DE0000A0101622068016A0162BDE8F087000013
:101DF00000080040000000200014014060010020A5
:101E0000000C004000080140A80100200004004030
:101E1000180100202DE9F041054690F83C000C46E1
:101E2000012836D0012085F83C008AB3042A42D02C
:101E30002868082A51D0D4E90023E168066A26F40C
:101E400080560662C669076A26F4407646EA03238E
:101E50004FF6FF7606EA013123F4704319434FF43D
:101E6000005627F4005306EA02321A43C1610262A7
:101E70002868C16921F44061C1612868C169A2680C
:101E800041EA0221C161002085F83C00BDE8F081F3
:101E900001E00220FAE7D4E90012E368286800F0C4
:101EA00043FE2868816921F00C01816128688169FD
:101EB000A26811430FE0D4E90012E368286800F03B
:101EC0007BFE2868816921F440618161286881690D
:101ED000A26841EA02218161D5E7D4E90027267B87
:101EE000016A21F480710162C169036A21F0030172
:101EF000394321F0F00731074FF4007647EA1161CA
:101F000023F4007306EA02221A43C16102622868C0
:101F1000C16921F00C01C1612868C169A26811433F
:101F2000B0E710B5040003D094F83D0010B107E00D
:101F3000012010BD002084F83C00204600F01EF86F
:101F4000022084F83D00211D206800F077FD01206B
:101F500084F8460084F83E0084F83F0084F840008E
:101F600084F8410084F8420084F8430084F8440077
:101F700084F8450084F83D00002010BD7047000043
:101F800010B5044651B104290DD0082910D094F899
:101F9000410094F84520012811D10EE094F83E004C
:101FA00094F84220F7E794F83F0094F84320F2E7D2
:101FB00094F8400094F84420EDE7012A01D0012074
:101FC00010BD022051B1042911D0082918D084F87D
:101FD000410084F845000C291BD13CE084F83E0008
:101FE00084F842002068C26842F0020210E084F8DF
:101FF0003F0084F843002068C26842F0040207E012
:1020000084F8400084F844002068C26842F0080266
:10201000C2600122206800F057FD11492068884203
:102020000ED0104988420BD0B0F1804F08D00E4935
:10203000884205D00D49884202D00D49884204D11A
:10204000816801F00701062903D0016841F0010110
:102050000160002010BD2068C26842F01002D7E77E
:10206000002C014000340140000400400008004002
:10207000000C004030B5044600680D0006D0042D69
:1020800008D0082D28D00C2D08D129E0C16821F0F6
:10209000020102E0C16821F00401C160002229466A
:1020A000206800F011FD2068016A41F2111211420E
:1020B00007D1016A9210114203D1016821F0010198
:1020C0000160012085B1042D11D0082D12D004F833
:1020D000410F2071002030BDC16821F00801DCE70C
:1020E000C16821F01001D8E704F83E0FF1E704F8C9
:1020F0003F0FEEE704F8400FEBE770B504460068C9
:1021000001694FF00005C943890715D4C168C94367
:10211000890711D4E91E01610120207720688069B8
:102120008007204602D0FFF7C7FD04E000F098F8D2
:10213000204600F096F8257720680169C9434907D1
:1021400017D4C168C943490713D46FF00401016172
:10215000022020772068806910F4407F204602D05A
:10216000FFF7AAFD04E000F07BF8204600F079F8C4
:10217000257720680169C943090716D4C168C94396
:10218000090712D46FF0080101610420207720684C
:10219000C0698007204602D0FFF78EFD04E000F002
:1021A0005FF8204600F05DF8257720680169C94393
:1021B000C90617D4C168C943C90613D46FF010010A
:1021C0000161082020772068C06910F4407F204614
:1021D00002D0FFF771FD04E000F042F8204600F065
:1021E00040F8257720680169C943C90708D1C1684B
:1021F000C943C90704D1891E0161204600F032F8A5
:1022000020680169C943090609D4C168C9430906A0
:1022100005D46FF0800101612046FFF7A7FB20681D
:102220000169C943490609D4C168C943490605D4AF
:102230006FF040010161204600F03FF8206801691D
:10224000C94389060BD4C168C943890607D46FF016
:10225000200101612046BDE87040FFF788BB70BDDA
:1022600070477047074A0168914203D106498A685E
:10227000521C8A6000680549884201D1FFF71CB8EA
:10228000704700000008004000000020002C0140C2
:102290000246002041B1042909D008290AD00C299E
:1022A00001D11068006C70471068406B704710686F
:1022B000806B70471068C06B7047704770477047FD
:1022C000F8B5026804461068D168536910F00F0F22
:1022D0004FF0000553D003F0010601F49077374327
:1022E0005FD0C20705D0CA0503D5226C42F00102B7
:1022F0002264420705D5DA0703D0226C42F00202BD
:102300002264820705D5DA0703D0226C42F004026A
:102310002264020707D501F02002324303D0226C69
:1023200042F008022264226C002A34D0800604D5D0
:10233000880602D5204600F07AFC20684069216CAE
:10234000C0F38010090700D430B3204600F057FCDA
:102350002068416949061BD5416921F0400141616E
:10236000A06BA8B158494163A06BFEF7EFFD0028B0
:1023700011D0A06B416B01B0BDE8F0400847830667
:102380000FD58B060DD52046BDE8F84000F04FBCB8
:102390002046FFF794FFF8BD2046FFF790FF256425
:1023A000F8BD266B2023012E52D1C60650D5CE068D
:1023B0004ED5106850680090506940062AD5A16B30
:1023C000086840680004000CEAD0A68D8642E7D970
:1023D000E0858869202818D0D06820F48070D0600B
:1023E0002068416921F0010141612068416921F0C3
:1023F0004001416184F83E3025632068C16821F0C6
:102400001001C160A06BFEF77EFDA08DE18D401A2A
:1024100081B219E0A08DE18D401A81B2E08D0028D3
:10242000BED00029BCD0D06820F49070D060206865
:10243000426922F00102426184F83E30256320683F
:10244000C26822F01002C2602046FFF737FFF8BDD5
:1024500005062BD50D0629D594F83D002128F6D187
:10246000A068B0F5805F01D12069B0B1206A411C3D
:102470002162216800784860E08C401E0004000C56
:10248000E084E4D12068C16821F08001C160206847
:10249000C16841F04001C160F8BD206A0088C0F306
:1024A00008005060206A801C2062E5E74006F3D5F2
:1024B0004806F1D5D168204621F04001D16084F86A
:1024C0003D3000F0D0F8F8BDEF2B000870B50400E7
:1024D00004D094F83D00002510B106E0012070BD45
:1024E00084F83C50204600F023F8242084F83D0076
:1024F0002068C16821F40051C160204600F0F2FB61
:102500002068016921F4904101612068416921F04E
:102510002A0141612068C16841F40051C16025640D
:10252000202084F83D0084F83E00002070BD0000AB
:1025300030B585B00024009401940294039400689F
:10254000184988422CD11848816941F48041816141
:10255000816901F480410491816941F00401816144
:102560008069124D00F0040004904FF40070009058
:10257000022001900320039069462846FEF790FD53
:102580002815CDE90004694628460294FEF788FD27
:10259000002211462520FEF71BFF2520FEF70AFF2B
:1025A00005B030BD00380140001002400008014075
:1025B000704700002DE9F843044690F83D001F469F
:1025C00016460D4620284CD1C5B1BEB194F83C004A
:1025D000012846D0012084F83C004FF00008C4F8E0
:1025E0004080212084F83D00FEF760FEA6848146ED
:1025F000E684A068B0F5805F03D004E00120BDE868
:10260000F883206928B12E465FF0000584F83C80ED
:102610000EE00026FAE78021204600F0BFFBA0B9BB
:10262000AEB116F8010B21684860E08C401EE084D2
:10263000E08C4B464FF0000200970028EBD14FF0A2
:102640004001204600F0AAFB30B10320D7E735F85F
:10265000020BC0F30800E6E7202084F83D000020CC
:10266000CDE70220CBE77047FEE700000F4810B52A
:102670000D4901600321416000214FF40022816077
:10268000C0E903125200426101760122427681764E
:10269000C17601774177FEF7E7FA002803D0BDE85D
:1026A0001040FEF775B810BD00640040A80000207F
:1026B00030B585B000241C48009401940294039422
:1026C000816941F040018161816901F0400104911B
:1026D000816941F010018161816901F0100104916B
:1026E000816941F004018161816901F00401049173
:1026F000816941F02001816180690C4D00F020006A
:102700000490002220212846FEF7CBFD20200090D7
:102710000120CDE901040220039069462846FEF716
:10272000BFFC05B030BD00000010024000180140A1
:1027300010B586B0002416480094019402940394C6
:1027400004944FF080410594016048F69F41C0E930
:1027500001141321C0E903148461FFF747F908B19C
:10276000FEF716F84FF48050009069460848FFF7CE
:1027700037FA08B1FEF70CF8049404A9044805944C
:10278000FFF7F6F8002801D0FEF702F806B010BDFA
:10279000D000002010B58AB000242348049405948A
:1027A00006940794089409940094019402941D4996
:1027B000039401604721C0E901144FF6FF71C0E99D
:1027C000031480218161FFF711F908B1FDF7E0FFE3
:1027D0004FF48050049004A91348FFF701FA08B1A0
:1027E000FDF7D6FF1048FFF79CFB08B1FDF7D0FFBF
:1027F000089408A90C480994FFF7BAF808B1FDF746
:10280000C7FF0120CDE90040029400226946064836
:102810000394FFF7FFFA002801D0FDF7B9FF0AB0D3
:1028200010BD0000000400401801002010B58AB05F
:10283000002423480494059406940794089409946A
:102840000094019402941D49039401604721C0E95A
:1028500001144FF6FF71C0E9031480218161FFF775
:10286000C5F808B1FDF794FF4FF48050049004A917
:102870001348FFF7B5F908B1FDF78AFF1048FFF7D5
:1028800050FB08B1FDF784FF089408A90C4809948F
:10289000FFF76EF808B1FDF77BFF0120CDE900409E
:1028A00002940022694606480394FFF7B3FA002811
:1028B00001D0FDF76DFF0AB010BD00000008004018
:1028C0006001002010B58AB00024234804940594C8
:1028D00006940794089409940094019402941D4965
:1028E000039401604721C0E901144FF6FF71C0E96C
:1028F000031480218161FFF779F808B1FDF748FFE3
:102900004FF48050049004A91348FFF769F908B107
:10291000FDF73EFF1048FFF704FB08B1FDF738FF55
:10292000089408A90C480994FFF722F808B1FDF7AC
:102930002FFF0120CDE9004002940022694606489D
:102940000394FFF767FA002801D0FDF721FF0AB0D2
:1029500010BD0000000C0040A80100200C4810B57C
:102960000A4901604FF4E1314160002181600C228D
:10297000C160C0E904128161C161FFF7A7FD0028B1
:1029800003D0BDE81040FDF703BF10BD0038014083
:10299000F0010020FEE7FEE770477047704730B552
:1029A0008FB028216846FDF7F8FB14210AA8FDF72F
:1029B000F4FB01210804CDE9001000240294022553
:1029C0000491CDE907504FF4E01009906846FEF7F6
:1029D0003DFE08B172B6FEE70F20CDE90A054FF4BF
:1029E0008060CDE90C4002210AA80E94FEF722FD7A
:1029F000002801D072B6FEE70FB030BD704700006E
:102A00000148FFF77ABB0000340200200148FFF7BD
:102A100074BB0000D00000200148FFF76EBB00002F
:102A2000180100200148FFF768BB0000600100208A
:102A30000148FFF762BB0000A8010020F0B5026862
:102A40001C4B1D4D1D4E1E4F1E4C4FF0804C98428E
:102A500009D0A04207D0604505D0A84203D0B042BB
:102A600001D0B84204D122F0700E4A6842EA0E0248
:102A7000984209D0A04207D0604505D0A84203D0B3
:102A8000B04201D0B84203D122F44075CA682A434B
:102A90004D6922F080022A4302608A68C2620A6895
:102AA0008262984201D0A04201D1096901630121EB
:102AB0004161F0BD002C01400004004000080040CE
:102AC000000C00400034014010B501F01F0301214B
:102AD000046A99408C430462016A9A40114301627E
:102AE00010BD10B5846842EA032224F47F440A43EF
:102AF0002243826010BD826822F070020A4342F0D5
:102B000007018160704710B5036A046A24F001046C
:102B10000462846924F0F00444EA021423F00A02F7
:102B20000A438461026210BD70B5046A24F0010496
:102B300004628469056A124EB0420ED0114EB04252
:102B40000BD0B0F1804F08D00F4EB04205D00F4EE1
:102B5000B04202D00E4EB04203D124F0030414431D
:102B600001E044F001041A0724F0F00444EA126280
:102B700025F00A0301F00A0119438261016270BD68
:102B8000002C0140003401400004004000080040D7
:102B9000000C004010B5036A23F010030362836940
:102BA000046A23F4704343EA023224F0A00343EAA8
:102BB00001118261016210BD30B5046A24F0100475
:102BC00004628469056A24F4407444EA022222F40F
:102BD00070444FF6FF7202EA03322243A02425F02C
:102BE000A00304EA011119438261016230BD10B5EE
:102BF000406A0021C185C184FFF761FB10BD0168F7
:102C0000CA6822F49072CA6001684A6922F001021F
:102C10004A61016B012904D10168CA6822F01002DF
:102C2000CA60202180F83E1000210163704708B57A
:102C300090F83E10222901D0022008BD82684FF48E
:102C400080539A4201D1016921B1816A9A421BD015
:102C50004AB10AE00268816A5268C2F308020A8037
:102C6000816A891C08E0026972B10268526802F048
:102C70007F020A70816A491C8162C18D491E090464
:102C8000090CC18503D019E002685268F1E70168B8
:102C9000CA6822F02002CA600168CA6822F4807201
:102CA000CA6001684A6922F001024A61202180F865
:102CB0003E10016B012903D0FFF77AFC002008BD0C
:102CC000002101630168CA6822F01002CA6001682D
:102CD0000A68D20602D50A6849680091818DFFF71B
:102CE000EDFAEBE770B5044600680169E26821F48B
:102CF0004051114301612169A0680843616908439B
:102D00002168CA6841F20C639A430243CA60206892
:102D10004169A26921F44071114341611E49206853
:102D2000884202D1FEF74CFC01E0FEF739FC00EBD3
:102D3000C00101EB0012606864218000B2FBF0F377
:102D4000B3FBF1F36FF018067343B2FBF0F5B2FB7F
:102D5000F0F605EB8305322303EB0515B5FBF1F522
:102D6000B6FBF1F605F0F00505EB0615B2FBF0F643
:102D7000B2FBF0F0B0FBF1F06FF01802504306EB3D
:102D8000800003EB0010B0FBF1F0216800F00F00B1
:102D90002844886070BD0000003801402DE9F041F2
:102DA000984617460E460446069D1DE0681C1BD03B
:102DB0002DB1FEF77BFAA0EB0800A84214D92068D9
:102DC000C16821F4D071C1602068416921F001011E
:102DD0004161202084F83D0084F83E00002084F802
:102DE0003C000320BDE8F0812068006836EA00005E
:102DF00004D00020B842D9D00020F3E70120F9E741
:102E00000148FFF75DBA0000F0010020FEE7000076
:102E10000FB4054B10B503A9044A029800F0EAF874
:102E200010BC5DF814FB0000613E0008700000203B
:102E30000907090E002804DB00F1E02080F80014E7
:102E4000704700F00F0000F1E02080F8141D70477B
:102E500002E008C8121F08C1002AFAD17047704763
:102E6000002001E001C1121F002AFBD170470000C1
:102E70002DE9FF5F82B00021DDE90430020DDDF8AD
:102E800040B0034318D044F61050A2F2FF32424340
:102E90001514119801281FD0A5EB0B00401C5FEA08
:102EA000000A4FF000064E4FDFF83891B04650460A
:102EB00015D5CAF1000413E0119801244AA3012892
:102EC00001D16FEA0B010298119AC0E90031C0E903
:102ED000024206B0BDE8F09FCBF10000DFE70446F8
:102EE0000021404A491842EB0450CDE9001012E09D
:102EF000E00707D032463B4640464946FDF7FFF91A
:102F00008046894632463B4610461946FDF7F7F99A
:102F100006460F466410002CEAD1DDE90401DDE924
:102F20000023BAF1000F06DAFDF7E9F942464B46F5
:102F3000FDF7E5F905E0FDF754FA42464B46FDF78B
:102F400050FA04460E460022284BFDF7D3FB03D867
:102F50004FF0FF30014607E00022254B2046314666
:102F6000FDF726F9FDF7AEFB102409E0002C0ADB83
:102F70000A220023FDF7F7FA039B30321A55641E2C
:102F800050EA0102F2D1641C039AC4F11103144403
:102F9000119A012A03D0012208430DD10AE0084307
:102FA00004D000204FF0110B119072E7A3EB0B053A
:102FB0006D1E0DE05B4504DD4FF0000205F10105DB
:102FC00004E003DA4FF00002A5F10105002AECD07D
:102FD00002981199C0E90231C0E9004579E7000083
:102FE000000014400000F03F300000000000F043FB
:102FF0000000E03F2DE9FF4F95B09A46884606460F
:103000000025EEE1252877D100242746F94A012141
:10301000039400E0044316F8013F203B01FA03F05B
:103020001042F7D130782A2811D06FF02F03307872
:10303000A0F13002092A16D8039A44F0020402EBE8
:10304000820203EB42021044761C0390EFE758F82B
:10305000042B0392002A03DA504244F400540390F4
:1030600044F00204761C30782E2816D116F8010F91
:1030700044F004042A280DD06FF02F023078A0F11C
:103080003003092B09D807EB870302EB4303C7186A
:10309000761CF3E758F8047B761C30786C280FD048
:1030A00006DC4C2817D068280DD06A2814D104E01B
:1030B000742810D07A280FD10DE044F400140AE0EF
:1030C00044F4801401E044F440147278824202D146
:1030D00004F58014761C761C307866280BD013DC3F
:1030E000582877D009DC002875D04528F6D0462826
:1030F000F4D047281AD193E118E0632835D064282A
:1031000079D0652812D18BE1702873D008DC67284C
:10311000F1D069286FD06E280DD06F2806D1ACE0B1
:1031200073282CD0752874D0782853D0524617991C
:1031300090476D1C54E1C4F30250022809D00328C3
:103140000DD0D8F8001004280DD00D6008F1040847
:1031500046E1D8F80010EA17C1E90052F6E7D8F8BE
:1031600000100D80F2E70D70F0E718F8041B8DF8E1
:10317000001000208DF80100EB46012003E058F814
:1031800004BB4FF0FF3061074FF0000102D40DE0A7
:1031900009F101018946B9420FDA8145F8DB1BF8D4
:1031A00009100029F4D108E009F1010189468142A2
:1031B000FADB1BF809100029F6D103985346A0EB5F
:1031C000090721463846179A00F080FA284400EB98
:1031D000090507E044E008E10DE01BF8010B524649
:1031E00017999047B9F10109F7D25346214638465D
:1031F000179AF2E039E00A21C4F302524FF0000BB3
:103200000091022A06D058F8040BC117032A09D0EE
:103210000AE023E008F1070020F00702F2E80201CB
:10322000904605E000B2C117042A01D140B2C1178F
:10323000002906DA0A460021404261EB02012D22F4
:1032400002E0220504D52B228DF80420012203E0A0
:10325000E20701D02022F7E7914657E00A2100E07B
:1032600010214FF0000B00910BE010214FF0000BEC
:1032700044F004040827009103E008204FF0000BFD
:103280000090C4F30252022A05D058F8040B002122
:10329000032A08D008E008F1070020F00702F2E84E
:1032A0000201904603E080B2042A00D1C0B24FF080
:1032B000000922072AD53278702A07D0DDF800C02D
:1032C0008CF0100C5CEA0B0C05D00EE040228DF85F
:1032D0000420012208E050EA010306D030238DF8D3
:1032E00004308DF8052002229146009B83F00803EC
:1032F00053EA0B030AD150EA010201D1620705D556
:1033000030228DF804204FF001097F1E3278582AB0
:1033100004D039A20C920CAA02920BE03BA2F9E76E
:103320005B46009AFDF71FF90C9B9B5C029A521EAC
:103330000292137050EA0102F2D1029804A9081A0D
:1033400000F1200B600702D524F4803400E001274F
:103350005F4502DDA7EB0B0000E0002000EB0B0156
:10336000009003984944401A0390E00306D4534662
:103370002146179A039800F0A9F90544002706E0B2
:1033800001A85246C05D179990476D1C7F1C4F45A0
:10339000F6DBE0030CD553462146179A039800F05C
:1033A00095F9054404E030205246179990476D1C6A
:1033B0000099481E00900029F5DC08E00298029967
:1033C00052460078491C0291179990476D1CBBF139
:1033D0000001ABF1010BF1DC5BE100F065F90544A4
:1033E000761C307800287FF40DAE19B02846BDE871
:1033F000F08F000009280100303132333435363780
:103400003839616263646566000000003031323330
:1034100034353637383941424344454600000000D0
:10342000600700D4062708F1070020F00700F0E845
:103430000223804603F0004C5FEA0C0001D097A005
:1034400009E0200501D596A005E0E00701D095A090
:1034500001E0AFF24C001390307823F00043652870
:103460000CD006DC452809D046281DD047287FD13E
:103470003BE0662818D067287AD136E00021112F6A
:1034800001DB112000E0781CCDE9000104A90CA8A3
:10349000FFF7EEFCDDE90D010C9A4FF0000B07F190
:1034A0000109109200914EE04FF000400097CDE9E5
:1034B000011004A90CA8FFF7DBFCDDE90D020C9B51
:1034C0000F994FF0000B91461093009211B9791C9F
:1034D00000EB0109B7EB090003D4C0F1FF3B07F192
:1034E0000109A9EB0700019042E0012F00DA012752
:1034F0000021112F01DD112000E03846CDE9000147
:1035000004A90CA8FFF7B4FCDDE90D010C9A0091A9
:103510004FF0000BB946109221070FD4009A4A458C
:1035200003DA914601E0A9F10109B9F1010F05DDC6
:10353000109AA9F10101515C3029F4D0B84202DAA5
:1035400010F1040F03DA0121CDE9011010E0002889
:1035500003DC8344A9EB000102E0411C494500DD86
:103560008946A0EB0B00401C01904FF000400290F8
:10357000200705D40198484502DB4FF0FF30019049
:1035800000208DF84B0002980DF14B07B0F1004F71
:1035900025D002200C902B200D90029800280CDAE8
:1035A000404202902D200D9007E00A210298FCF77E
:1035B000C4FF3031029007F8011D0C99481E0C9091
:1035C0000029F2DC02980028EFD1791E0D980870CE
:1035D000307800F0200040F0450007F8020D11A8F7
:1035E000C01BC01D02901398007800B1012000EBB1
:1035F0000901019801EBE071029801440398401A17
:10360000401E0390E00306D453462146179A0398C0
:1036100000F05CF805441398007818B152461799E9
:1036200090476D1CE00323D553462146179A039813
:1036300000F04CF805441BE0BBF1000F07DB0098DD
:10364000584504DD1098179910F80B0001E0179900
:1036500030205246904701980BF1010B401E05F1B6
:103660000105019004D12E205246179990476D1CF8
:10367000B9F10001A9F10109DEDC05E017F8010B41
:103680005246179990476D1C0299481E02900029D6
:10369000F4DC53462146179A03989EE62D0000005D
:1036A0002B000000200000002DE9F0410446002519
:1036B0001E461746880404D405E039462020B0474A
:1036C0006D1C641EF9D52846BDE8F0812DE9F04156
:1036D000044600251E469046C80301D5302700E069
:1036E0002027880404D505E041463846B0476D1CC4
:1036F000641EF9D52846BDE8F08100002DE9FF5F82
:1037000090B08246DDE91E45FF4817469946B0F95C
:103710000000FCF7D5FE8846064622462B46FCF7FD
:10372000EEFDDFF8E8B300225B46FCF7E5FD04465A
:103730000D46304641463A464B46FCF7E0FD002236
:103740005B4605910790FCF7D7FD07468946304652
:1037500041465246119BFCF7D2FD80460022EC4BBD
:103760000A91FCF725FD08914B463A460390FCF779
:103770001FFD22462B46FCF71BFDFCF7BFFEDFF8C2
:1037800094A306B24046AAF8006000225B460A995C
:10379000FCF7B2FD80463A464B460691FCF708FD21
:1037A00022462B46FCF704FDFCF7A8FEDFF868B3C1
:1037B00000B20022ABF800000E90D54B0599079897
:1037C000FCF7F6FC894607464B463A4640460699C2
:1037D000FCF7EEFC22462B46FCF7EAFCFCF78EFEDB
:1037E000CE4900B23A46088009904B4608990398A2
:1037F000FCF7DEFC22462B46FCF7DAFCFCF77EFEEB
:10380000C74D00B2DFF81C932880079042F2107079
:10381000DFF81483864258DDA6F51C50743800B2D8
:10382000A9F8000090FBF6F0FCF74AFE0446C8E950
:1038300000010F463046FCF743FE064622463B4653
:103840000391FCF75CFD02460B4630460399FCF7FA
:1038500050FDFCF753FEAAF800000E98FCF730FE6E
:10386000064622463B460391FCF749FD02460B46BD
:1038700030460399FCF73DFDFCF740FEABF8000035
:103880000998FCF71DFE064622463B460391FCF7CD
:1038900036FD02460B4630460399FCF72AFDFCF73D
:1038A0002DFE9E4908800798FCF70AFE0E46224628
:1038B0003B460390FCF723FD02460B463146039836
:1038C000FCF717FDFCF71AFE28805446BAF900A051
:1038D00042F210701AEB000F5CDA42F274710AEBDC
:1038E000010000B2A9F8000090FBFAF0FCF7E8FD37
:1038F0000646C8E900010F465046FCF7E1FD824646
:1039000032463B460391FCF7FAFC02460B46504612
:103910000399FCF7EEFCFCF7F1FD2080BBF90000F9
:10392000FCF7CEFD824632463B460391FCF7E7FCAE
:1039300002460B4650460399FCF7DBFCFCF7DEFD24
:10394000ABF800007548B0F90000FCF7B9FD8246FD
:1039500032463B460391FCF7D2FC02460B465046EA
:103960000399FCF7C6FCFCF7C9FD6C490880B5F962
:103970000000FCF7A5FD824632463B460291FCF76B
:10398000BEFC02460B4650460299FCF7B2FCFCF71F
:10399000B5FD2880BBF900A042F2107082455BDDC6
:1039A000AAF51C50743800B2A9F8000090FBFAF098
:1039B000FCF786FD0646C8E900010F46B4F9000091
:1039C000FCF77EFDCDE9021032463B46FCF797FC42
:1039D00002460B46DDE90210FCF78BFCFCF78EFD7E
:1039E00020805046FCF76CFD824632463B460391F0
:1039F000FCF785FC02460B4650460399FCF779FC20
:103A0000FCF77CFDABF800004448B0F90000FCF77F
:103A100057FD824632463B460391FCF770FC024656
:103A20000B4650460399FCF764FCFCF767FD3B49E5
:103A30000880B5F90000FCF743FD824632463B465C
:103A40000391FCF75CFC02460B4650460399FCF7D9
:103A500050FCFCF753FD2880BBF900A042F2107126
:103A60001AEB010F6FDA42F274710AEB010000B237
:103A7000A9F8000090FBFAF0FCF722FD0646C8E921
:103A800000010F46B4F90000FCF71AFDCDE9021061
:103A900032463B46FCF733FC02460B46DDE902109A
:103AA000FCF727FCFCF72AFD20805046FCF708FDB8
:103AB000824632463B460391FCF721FC02460B4608
:103AC00050460399FCF715FCFCF718FDABF8000015
:103AD0001248B0F90000FCF7F3FC824632463B4640
:103AE0000391FCF70CFC02460B4650460399FCF789
:103AF00000FCFCF703FD09490880B5F90000FCF75C
:103B0000DFFC8246324611E0400000200088C340BE
:103B10000088C3C000000020020000200400002034
:103B20000600002042000020480000203B46039190
:103B3000FCF7E5FB02460B4650460399FCF7D9FB20
:103B4000FCF7DCFC2880C54842F21071B0F900A0F7
:103B50008A455ADDAAF51C50743800B2A9F8000055
:103B600090FBFAF0FCF7ACFC0646C8E900010F46F2
:103B7000B4F90000FCF7A4FC32463B46CDE9020153
:103B8000FCF7BDFB02460B46DDE90201FCF7B1FB89
:103B9000FCF7B4FC2080BBF90000FCF791FC324636
:103BA0003B46CDE90201FCF7AAFB02460B46DDE9E4
:103BB0000201FCF79EFBFCF7A1FCABF800005046AD
:103BC000FCF77EFC824632463B460391FCF797FBAE
:103BD00002460B4650460399FCF78BFBFCF78EFC24
:103BE0009E490880B5F90000FCF76AFC824632461F
:103BF0003B460391FCF783FB02460B465046039974
:103C0000FCF777FBFCF77AFC2880944842F21071AD
:103C1000B0F900A01AEB010F5BDA42F274710AEB03
:103C2000010000B2A9F8000090FBFAF0FCF748FC94
:103C30000646C8E900010F46B4F90000FCF740FC55
:103C400032463B46CDE90201FCF759FB02460B46E2
:103C5000DDE90201FCF74DFBFCF750FC2080BBF9CD
:103C60000000FCF72DFC32463B46CDE90201FCF793
:103C700046FB02460B46DDE90201FCF73AFBFCF786
:103C80003DFCABF800005046FCF71AFC8246324679
:103C90003B460391FCF733FB02460B465046039923
:103CA000FCF727FBFCF72AFC6C490880B5F90000FB
:103CB000FCF706FC824632463B460391FCF71FFBAD
:103CC00002460B4650460399FCF713FBFCF716FC23
:103CD0002880B5F9007042F21070AA4687425CDD78
:103CE000A7F51C50743800B2A9F8000090FBF7F05B
:103CF000FCF7E6FB0546C8E900010E46B4F90000F2
:103D0000FCF7DEFB2A463346CDE90001FCF7F7FA63
:103D100002460B46DDE90001FCF7EBFAFCF7EEFB8F
:103D20002080BBF90000FCF7CBFBCDE900102A4650
:103D30003346FCF7E4FA02460B46DDE90010FCF7D7
:103D4000D8FAFCF7DBFBABF800004448B0F9000000
:103D5000FCF7B6FB2A463346CDE90001FCF7CFFA63
:103D600002460B46DDE90001FCF7C3FAFCF7C6FB8F
:103D70003A4908803846FCF7A3FB07462A463346F3
:103D80000191FCF7BCFA02460B4638460199FCF754
:103D9000B0FAFCF7B3FBAAF80000BAF9007042F2DF
:103DA0001071CF4257DA42F27470384400B2A9F869
:103DB000000090FBF7F0FCF783FBC8E90001054623
:103DC0000E46A046B4F90000FCF77AFB894604468B
:103DD0002A463346FCF793FA22464B46FCF78CFA08
:103DE000FCF78CFBA8F80000BBF90000FCF768FBAF
:103DF000884604462A463346FCF781FA2246434663
:103E0000FCF77AFAFCF77AFBDFF85080ABF8000099
:103E1000B8F90000FCF754FB894604462A463346AD
:103E2000FCF76DFA22464B46FCF766FAFCF766FB98
:103E3000A8F800003846FCF743FB04460F462A4624
:103E40003346FCF75CFA22463B46FCF755FAFCF792
:103E500055FBAAF8000014B0BDE8F09F0400002054
:103E600013B54FF6FF73012269460248FEF7A2FB25
:103E700000981CBDF00100201CB5FDF725FAFEF7E7
:103E80008EFDFEF715FCFEF7F1FBFEF751FCFEF789
:103E9000CDFCFEF763FDFEF77DFCFEF713FD6148E8
:103EA000FCF75AFC082300221146980100F0FCF8A8
:103EB00000215D48FEF7DEF800215C48FEF7DAF8E5
:103EC00000215B48FEF7D6F8002240F201240823C7
:103ED0001146204600F0C4F800220823114620466F
:103EE00000F0BEF8534C01222021E0605248FDF75B
:103EF000D8F900214C48FEF743F8504FD4E90A01A5
:103F000000223B46FCF7F5F94D4E00223346FCF704
:103F100068FAC4E90401C820FDF7B0F8D4E9042325
:103F200048A0FEF775FF00214048FEF729F8484DEC
:103F3000D4E90C0100222B46FCF7DBF900223346C2
:103F4000FCF74FFAC4E90601C820FDF797F8D4E959
:103F5000062340A0FEF75CFF00213548FEF710F86D
:103F6000D4E90E0100222B46FCF7C3F900223346A8
:103F7000FCF737FAC4E908014FF47A70FDF77EF8D0
:103F800000212948FDF7FCFFD4E90A0100223B4645
:103F9000FCF7AFF900223346FCF723FAC4E9040129
:103FA0000A20FDF76BF800212048FDF7E9FFD4E96E
:103FB0000C0100222B46FCF79CF900223346FCF74B
:103FC00010FAC4E906010A20FDF758F8D4E90623DF
:103FD00020A0FEF71DFF00211548FDF7D1FFD4E911
:103FE0000E0100222B46FCF784F900223346FCF731
:103FF000F8F9C4E908010A20FDF740F8D4E90801FE
:10400000CDE9000104F110000FC8FFF777FBB4F908
:104010000630B4F90420B4F90210B4F9000000F03D
:104020004DF8ADE7A800002060010020A8010020A5
:104030001801002000000020001801400078934083
:10404000000089406368313A256C660A0000000070
:10405000002891406368323A256C660A000000002F
:104060001CB50E4C01C400200FC40146606044F82A
:1040700014096B46094A0A48FCF784FC08B102207F
:104080001CBD00206A46074B216903E0145C1C54E8
:10409000401CC0B28142F9D800201CBD8C00002019
:1040A000A80000205800002010B5034C01C40020D7
:1040B00084E80F0010BD00007400002030B587B008
:1040C00000240594144C050A25706070080AA0703D
:1040D000E170100A20716271180AA0710F48E37133
:1040E00001680FA0FEF794FE207901ADE379A27973
:1040F000617985E80F00E0780090A37862782178F4
:104100000BA0FEF785FE05AB224604491348FCF7D9
:1041100053FB07B030BD00005000002074000020A9
:1041200054582049443A307825303033580D0A002D
:10413000545820444154413A2530325825303258A1
:1041400025303258253032582530325825303258F3
:1041500025303258253032580D0A0000A8000020C2
:104160000000000000000000010203040607080927
:104170000000000001020304984100080000002034
:1041800074000000502E00080C420008740000204B
:104190000C060000602E0008000000000000000077
:1041A000000000000000000000000000000000000F
:1041B00000000000000000000000000000000000FF
:1041C00000000000000000000000000000000000EF
:1041D0000000000000000000204E00000000000071
:1041E00000000000000000000000000000000000CF
:1041F00000000000000000000100000010000000AE
:0C420000000000000024F400000000009A
:0400000508000131BD
:00000001FF
